{
  "transactions": [
    {
      "hash": "0x30d50cdbb7f63822a768a664b490f66888fb3db17d657d7bb48de1e14ad02c21",
      "transactionType": "CREATE",
      "contractName": "NFT",
      "contractAddress": "0x5fbdb2315678afecb367f032d93f642f64180aa3",
      "function": null,
      "arguments": [
        "https://assets.pokemon.com/assets/cms2/img/pokedex/detail/"
      ],
      "transaction": {
        "from": "0xf39fd6e51aad88f6f4ce6ab8827279cfffb92266",
        "gas": "0x1de7e9",
        "value": "0x0",
        "input": "0x608060405234801561000f575f5ffd5b50604051611b4e380380611b4e83398101604081905261002e9161011e565b604051806040016040528060078152602001662827a5a2a6a7a760c91b815250604051806040016040528060048152602001632825a6a760e11b815250815f90816100799190610252565b5060016100868282610252565b50508151829150602f60f81b9082906100a19060019061030c565b815181106100b1576100b1610331565b01602001517fff0000000000000000000000000000000000000000000000000000000000000016146100f6576040516317dbc4cb60e21b815260040160405180910390fd5b600b6101028382610252565b505050610345565b634e487b7160e01b5f52604160045260245ffd5b5f6020828403121561012e575f5ffd5b81516001600160401b03811115610143575f5ffd5b8201601f81018413610153575f5ffd5b80516001600160401b0381111561016c5761016c61010a565b604051601f8201601f19908116603f011681016001600160401b038111828210171561019a5761019a61010a565b6040528181528282016020018610156101b1575f5ffd5b8160208401602083015e5f91810160200191909152949350505050565b600181811c908216806101e257607f821691505b60208210810361020057634e487b7160e01b5f52602260045260245ffd5b50919050565b601f82111561024d57805f5260205f20601f840160051c8101602085101561022b5750805b601f840160051c820191505b8181101561024a575f8155600101610237565b50505b505050565b81516001600160401b0381111561026b5761026b61010a565b61027f8161027984546101ce565b84610206565b6020601f8211600181146102b1575f831561029a5750848201515b5f19600385901b1c1916600184901b17845561024a565b5f84815260208120601f198516915b828110156102e057878501518255602094850194600190920191016102c0565b50848210156102fd57868401515f19600387901b60f8161c191681555b50505050600190811b01905550565b8181038181111561032b57634e487b7160e01b5f52601160045260245ffd5b92915050565b634e487b7160e01b5f52603260045260245ffd5b6117fc806103525f395ff3fe608060405234801561000f575f5ffd5b506004361061011c575f3560e01c80634f6ccce7116100a9578063a22cb4651161006e578063a22cb4651461025c578063b88d4fde1461026f578063c87b56dd14610282578063e00dd16114610295578063e985e9c51461029e575f5ffd5b80634f6ccce7146102085780636352211e1461021b5780636a6278421461022e57806370a082311461024157806395d89b4114610254575f5ffd5b80631323a0e2116100ef5780631323a0e21461019d57806318160ddd146101bd57806323b872dd146101cf5780632f745c59146101e257806342842e0e146101f5575f5ffd5b806301ffc9a71461012057806306fdde0314610148578063081812fc1461015d578063095ea7b314610188575b5f5ffd5b61013361012e366004611204565b6102b1565b60405190151581526020015b60405180910390f35b6101506102db565b60405161013f9190611254565b61017061016b366004611266565b61036a565b6040516001600160a01b03909116815260200161013f565b61019b610196366004611298565b610391565b005b6101b06101ab3660046112c0565b6103a0565b60405161013f91906112d9565b6008545b60405190815260200161013f565b61019b6101dd36600461131b565b610435565b6101c16101f0366004611298565b6104c3565b61019b61020336600461131b565b610526565b6101c1610216366004611266565b610545565b610170610229366004611266565b61059a565b61019b61023c3660046112c0565b6105a4565b6101c161024f3660046112c0565b6105c8565b61015061060d565b61019b61026a366004611355565b61061c565b61019b61027d3660046113a2565b610627565b610150610290366004611266565b61063e565b6101c1600a5481565b6101336102ac36600461147f565b610705565b5f6001600160e01b0319821663780e9d6360e01b14806102d557506102d582610732565b92915050565b60605f80546102e9906114b0565b80601f0160208091040260200160405190810160405280929190818152602001828054610315906114b0565b80156103605780601f1061033757610100808354040283529160200191610360565b820191905f5260205f20905b81548152906001019060200180831161034357829003601f168201915b5050505050905090565b5f61037482610781565b505f828152600460205260409020546001600160a01b03166102d5565b61039c8282336107b9565b5050565b60605f6103ac836105c8565b90505f8167ffffffffffffffff8111156103c8576103c861138e565b6040519080825280602002602001820160405280156103f1578160200160208202803683370190505b5090505f5b8281101561042d5761040885826104c3565b82828151811061041a5761041a6114e8565b60209081029190910101526001016103f6565b509392505050565b6001600160a01b03821661046357604051633250574960e11b81525f60048201526024015b60405180910390fd5b5f61046f8383336107c6565b9050836001600160a01b0316816001600160a01b0316146104bd576040516364283d7b60e01b81526001600160a01b038086166004830152602482018490528216604482015260640161045a565b50505050565b5f6104cd836105c8565b82106104fe5760405163295f44f760e21b81526001600160a01b03841660048201526024810183905260440161045a565b506001600160a01b03919091165f908152600660209081526040808320938352929052205490565b61054083838360405180602001604052805f815250610627565b505050565b5f61054f60085490565b82106105775760405163295f44f760e21b81525f60048201526024810183905260440161045a565b6008828154811061058a5761058a6114e8565b905f5260205f2001549050919050565b5f6102d582610781565b6001600a5f8282546105b69190611510565b9091555050600a5461039c8282610899565b5f6001600160a01b0382166105f2576040516322718ad960e21b81525f600482015260240161045a565b506001600160a01b03165f9081526003602052604090205490565b6060600180546102e9906114b0565b61039c3383836108b2565b610632848484610435565b6104bd84848484610950565b60605f61064a83610a76565b905080600a84101561067d5781604051602001610667919061153a565b60405160208183030381529060405290506106a9565b60648410156106a957816040516020016106979190611550565b60405160208183030381529060405290505b5f8283600b846040516020016106c29493929190611565565b60405160208183030381529060405290506106dc81610b06565b6040516020016106ec91906116a1565b6040516020818303038152906040529350505050919050565b6001600160a01b039182165f90815260056020908152604080832093909416825291909152205460ff1690565b5f6001600160e01b031982166380ac58cd60e01b148061076257506001600160e01b03198216635b5e139f60e01b145b806102d557506301ffc9a760e01b6001600160e01b03198316146102d5565b5f818152600260205260408120546001600160a01b0316806102d557604051637e27328960e01b81526004810184905260240161045a565b6105408383836001610c61565b5f5f6107d3858585610d65565b90506001600160a01b03811661082f5761082a84600880545f838152600960205260408120829055600182018355919091527ff3f7a9fe364faab93b216da50a3214154f22a0a2b415b23a84c8169e8b636ee30155565b610852565b846001600160a01b0316816001600160a01b031614610852576108528185610e57565b6001600160a01b03851661086e5761086984610ee4565b610891565b846001600160a01b0316816001600160a01b031614610891576108918585610f8b565b949350505050565b61039c828260405180602001604052805f815250610fd9565b6001600160a01b0382166108e457604051630b61174360e31b81526001600160a01b038316600482015260240161045a565b6001600160a01b038381165f81815260056020908152604080832094871680845294825291829020805460ff191686151590811790915591519182527f17307eab39ab6107e8899845ad3d59bd9653f200f220920489ca2b5937696c31910160405180910390a3505050565b6001600160a01b0383163b156104bd57604051630a85bd0160e11b81526001600160a01b0384169063150b7a02906109929033908890879087906004016116d2565b6020604051808303815f875af19250505080156109cc575060408051601f3d908101601f191682019092526109c99181019061170e565b60015b610a33573d8080156109f9576040519150601f19603f3d011682016040523d82523d5f602084013e6109fe565b606091505b5080515f03610a2b57604051633250574960e11b81526001600160a01b038516600482015260240161045a565b805181602001fd5b6001600160e01b03198116630a85bd0160e11b14610a6f57604051633250574960e11b81526001600160a01b038516600482015260240161045a565b5050505050565b60605f610a8283610fef565b60010190505f8167ffffffffffffffff811115610aa157610aa161138e565b6040519080825280601f01601f191660200182016040528015610acb576020820181803683370190505b5090508181016020015b5f19016f181899199a1a9b1b9c1cb0b131b232b360811b600a86061a8153600a8504945084610ad557509392505050565b606081515f03610b2357505060408051602081019091525f815290565b5f6040518060600160405280604081526020016117876040913990505f600384516002610b509190611510565b610b5a9190611729565b610b65906004611748565b67ffffffffffffffff811115610b7d57610b7d61138e565b6040519080825280601f01601f191660200182016040528015610ba7576020820181803683370190505b509050600182016020820185865187016020810180515f82525b82841015610c1c576003840193508351603f8160121c168701518653600186019550603f81600c1c168701518653600186019550603f8160061c168701518653600186019550603f8116870151865350600185019450610bc1565b9052505085516003900660018114610c3b5760028114610c4e57610c56565b603d6001830353603d6002830353610c56565b603d60018303535b509195945050505050565b8080610c7557506001600160a01b03821615155b15610d36575f610c8484610781565b90506001600160a01b03831615801590610cb05750826001600160a01b0316816001600160a01b031614155b8015610cc35750610cc18184610705565b155b15610cec5760405163a9fbf51f60e01b81526001600160a01b038416600482015260240161045a565b8115610d345783856001600160a01b0316826001600160a01b03167f8c5be1e5ebec7d5bd14f71427d1e84f3dd0314c0f7b2291e5b200ac8c7c3b92560405160405180910390a45b505b50505f90815260046020526040902080546001600160a01b0319166001600160a01b0392909216919091179055565b5f828152600260205260408120546001600160a01b0390811690831615610d9157610d918184866110c6565b6001600160a01b03811615610dcb57610dac5f855f5f610c61565b6001600160a01b0381165f90815260036020526040902080545f190190555b6001600160a01b03851615610df9576001600160a01b0385165f908152600360205260409020805460010190555b5f8481526002602052604080822080546001600160a01b0319166001600160a01b0389811691821790925591518793918516917fddf252ad1be2c89b69c2b068fc378daa952ba7f163c4a11628f55a4df523b3ef91a4949350505050565b5f610e61836105c8565b5f83815260076020526040902054909150808214610eb2576001600160a01b0384165f9081526006602090815260408083208584528252808320548484528184208190558352600790915290208190555b505f9182526007602090815260408084208490556001600160a01b039094168352600681528383209183525290812055565b6008545f90610ef59060019061175f565b5f8381526009602052604081205460088054939450909284908110610f1c57610f1c6114e8565b905f5260205f20015490508060088381548110610f3b57610f3b6114e8565b5f918252602080832090910192909255828152600990915260408082208490558582528120556008805480610f7257610f72611772565b600190038181905f5260205f20015f9055905550505050565b5f6001610f97846105c8565b610fa1919061175f565b6001600160a01b039093165f908152600660209081526040808320868452825280832085905593825260079052919091209190915550565b610fe3838361112a565b6105405f848484610950565b5f8072184f03e93ff9f4daa797ed6e38ed64bf6a1f0160401b831061102d5772184f03e93ff9f4daa797ed6e38ed64bf6a1f0160401b830492506040015b6d04ee2d6d415b85acef81000000008310611059576d04ee2d6d415b85acef8100000000830492506020015b662386f26fc10000831061107757662386f26fc10000830492506010015b6305f5e100831061108f576305f5e100830492506008015b61271083106110a357612710830492506004015b606483106110b5576064830492506002015b600a83106102d55760010192915050565b6110d183838361118b565b610540576001600160a01b0383166110ff57604051637e27328960e01b81526004810182905260240161045a565b60405163177e802f60e01b81526001600160a01b03831660048201526024810182905260440161045a565b6001600160a01b03821661115357604051633250574960e11b81525f600482015260240161045a565b5f61115f83835f6107c6565b90506001600160a01b03811615610540576040516339e3563760e11b81525f600482015260240161045a565b5f6001600160a01b038316158015906108915750826001600160a01b0316846001600160a01b031614806111c457506111c48484610705565b806108915750505f908152600460205260409020546001600160a01b03908116911614919050565b6001600160e01b031981168114611201575f5ffd5b50565b5f60208284031215611214575f5ffd5b813561121f816111ec565b9392505050565b5f81518084528060208401602086015e5f602082860101526020601f19601f83011685010191505092915050565b602081525f61121f6020830184611226565b5f60208284031215611276575f5ffd5b5035919050565b80356001600160a01b0381168114611293575f5ffd5b919050565b5f5f604083850312156112a9575f5ffd5b6112b28361127d565b946020939093013593505050565b5f602082840312156112d0575f5ffd5b61121f8261127d565b602080825282518282018190525f918401906040840190835b818110156113105783518352602093840193909201916001016112f2565b509095945050505050565b5f5f5f6060848603121561132d575f5ffd5b6113368461127d565b92506113446020850161127d565b929592945050506040919091013590565b5f5f60408385031215611366575f5ffd5b61136f8361127d565b915060208301358015158114611383575f5ffd5b809150509250929050565b634e487b7160e01b5f52604160045260245ffd5b5f5f5f5f608085870312156113b5575f5ffd5b6113be8561127d565b93506113cc6020860161127d565b925060408501359150606085013567ffffffffffffffff8111156113ee575f5ffd5b8501601f810187136113fe575f5ffd5b803567ffffffffffffffff8111156114185761141861138e565b604051601f8201601f19908116603f0116810167ffffffffffffffff811182821017156114475761144761138e565b60405281815282820160200189101561145e575f5ffd5b816020840160208301375f6020838301015280935050505092959194509250565b5f5f60408385031215611490575f5ffd5b6114998361127d565b91506114a76020840161127d565b90509250929050565b600181811c908216806114c457607f821691505b6020821081036114e257634e487b7160e01b5f52602260045260245ffd5b50919050565b634e487b7160e01b5f52603260045260245ffd5b634e487b7160e01b5f52601160045260245ffd5b808201808211156102d5576102d56114fc565b5f81518060208401855e5f93019283525090919050565b61030360f41b81525f61121f6002830184611523565b600360fc1b81525f61121f6001830184611523565b607b60f81b8152641134b2111d60d91b60018201525f6115886006830187611523565b600b60fa1b815267113730b6b2911d1160c11b60018201526115ad6009820187611523565b61088b60f21b8152681134b6b0b3b2911d1160b91b600282015285549091505f90600181811c908216806115e257607f821691505b60208210810361160057634e487b7160e01b5f52602260045260245ffd5b808015611614576001811461162f57611663565b60ff198416600b870152600b83151584028701019450611663565b5f8a8152602090205f5b84811015611658578154888201600b0152600190910190602001611639565b5050600b8387010194505b505050506116956116886116778388611523565b64173837339160d91b815260050190565b607d60f81b815260010190565b98975050505050505050565b7f646174613a6170706c69636174696f6e2f6a736f6e3b6261736536342c00000081525f61121f601d830184611523565b6001600160a01b03858116825284166020820152604081018390526080606082018190525f9061170490830184611226565b9695505050505050565b5f6020828403121561171e575f5ffd5b815161121f816111ec565b5f8261174357634e487b7160e01b5f52601260045260245ffd5b500490565b80820281158282048414176102d5576102d56114fc565b818103818111156102d5576102d56114fc565b634e487b7160e01b5f52603160045260245ffdfe4142434445464748494a4b4c4d4e4f505152535455565758595a6162636465666768696a6b6c6d6e6f707172737475767778797a303132333435363738392b2fa2646970667358221220eca348bb48125b862aaffa401d4455a9ff5edec92b5307a6160ab3eb862e9a8364736f6c634300081b00330000000000000000000000000000000000000000000000000000000000000020000000000000000000000000000000000000000000000000000000000000003a68747470733a2f2f6173736574732e706f6b656d6f6e2e636f6d2f6173736574732f636d73322f696d672f706f6b656465782f64657461696c2f000000000000",
        "nonce": "0x0",
        "chainId": "0x7a69"
      },
      "additionalContracts": [],
      "isFixedGasLimit": false
    },
    {
      "hash": "0xf3a02032271e9a0cf408738d8b3d0fc40a84e95d23075b0167a7f085edd9f4d4",
      "transactionType": "CREATE",
      "contractName": "Token",
      "contractAddress": "0xe7f1725e7734ce288f8367e1bb143e90bb3f0512",
      "function": null,
      "arguments": null,
      "transaction": {
        "from": "0xf39fd6e51aad88f6f4ce6ab8827279cfffb92266",
        "gas": "0xa774e",
        "value": "0x0",
        "input": "0x608060405234801561000f575f5ffd5b50604051806040016040528060098152602001682a32b9ba2a37b5b2b760b91b81525060405180604001604052806004815260200163151154d560e21b815250816003908161005e919061010b565b50600461006b828261010b565b5050506101c5565b634e487b7160e01b5f52604160045260245ffd5b600181811c9082168061009b57607f821691505b6020821081036100b957634e487b7160e01b5f52602260045260245ffd5b50919050565b601f82111561010657805f5260205f20601f840160051c810160208510156100e45750805b601f840160051c820191505b81811015610103575f81556001016100f0565b50505b505050565b81516001600160401b0381111561012457610124610073565b610138816101328454610087565b846100bf565b6020601f82116001811461016a575f83156101535750848201515b5f19600385901b1c1916600184901b178455610103565b5f84815260208120601f198516915b828110156101995787850151825560209485019460019092019101610179565b50848210156101b657868401515f19600387901b60f8161c191681555b50505050600190811b01905550565b6107a1806101d25f395ff3fe608060405234801561000f575f5ffd5b50600436106100a6575f3560e01c806340c10f191161006e57806340c10f191461011f57806370a082311461013457806395d89b411461015c5780639dc29fac14610164578063a9059cbb14610177578063dd62ed3e1461018a575f5ffd5b806306fdde03146100aa578063095ea7b3146100c857806318160ddd146100eb57806323b872dd146100fd578063313ce56714610110575b5f5ffd5b6100b26101c2565b6040516100bf9190610611565b60405180910390f35b6100db6100d6366004610661565b610252565b60405190151581526020016100bf565b6002545b6040519081526020016100bf565b6100db61010b366004610689565b61026b565b604051601281526020016100bf565b61013261012d366004610661565b61028e565b005b6100ef6101423660046106c3565b6001600160a01b03165f9081526020819052604090205490565b6100b261029c565b610132610172366004610661565b6102ab565b6100db610185366004610661565b6102b5565b6100ef6101983660046106e3565b6001600160a01b039182165f90815260016020908152604080832093909416825291909152205490565b6060600380546101d190610714565b80601f01602080910402602001604051908101604052809291908181526020018280546101fd90610714565b80156102485780601f1061021f57610100808354040283529160200191610248565b820191905f5260205f20905b81548152906001019060200180831161022b57829003601f168201915b5050505050905090565b5f3361025f8185856102c2565b60019150505b92915050565b5f336102788582856102d4565b610283858585610354565b506001949350505050565b61029882826103b1565b5050565b6060600480546101d190610714565b61029882826103e5565b5f3361025f818585610354565b6102cf8383836001610419565b505050565b6001600160a01b038381165f908152600160209081526040808320938616835292905220545f19811461034e578181101561034057604051637dc7a0d960e11b81526001600160a01b038416600482015260248101829052604481018390526064015b60405180910390fd5b61034e84848484035f610419565b50505050565b6001600160a01b03831661037d57604051634b637e8f60e11b81525f6004820152602401610337565b6001600160a01b0382166103a65760405163ec442f0560e01b81525f6004820152602401610337565b6102cf8383836104eb565b6001600160a01b0382166103da5760405163ec442f0560e01b81525f6004820152602401610337565b6102985f83836104eb565b6001600160a01b03821661040e57604051634b637e8f60e11b81525f6004820152602401610337565b610298825f836104eb565b6001600160a01b0384166104425760405163e602df0560e01b81525f6004820152602401610337565b6001600160a01b03831661046b57604051634a1406b160e11b81525f6004820152602401610337565b6001600160a01b038085165f908152600160209081526040808320938716835292905220829055801561034e57826001600160a01b0316846001600160a01b03167f8c5be1e5ebec7d5bd14f71427d1e84f3dd0314c0f7b2291e5b200ac8c7c3b925846040516104dd91815260200190565b60405180910390a350505050565b6001600160a01b038316610515578060025f82825461050a919061074c565b909155506105859050565b6001600160a01b0383165f90815260208190526040902054818110156105675760405163391434e360e21b81526001600160a01b03851660048201526024810182905260448101839052606401610337565b6001600160a01b0384165f9081526020819052604090209082900390555b6001600160a01b0382166105a1576002805482900390556105bf565b6001600160a01b0382165f9081526020819052604090208054820190555b816001600160a01b0316836001600160a01b03167fddf252ad1be2c89b69c2b068fc378daa952ba7f163c4a11628f55a4df523b3ef8360405161060491815260200190565b60405180910390a3505050565b602081525f82518060208401528060208501604085015e5f604082850101526040601f19601f83011684010191505092915050565b80356001600160a01b038116811461065c575f5ffd5b919050565b5f5f60408385031215610672575f5ffd5b61067b83610646565b946020939093013593505050565b5f5f5f6060848603121561069b575f5ffd5b6106a484610646565b92506106b260208501610646565b929592945050506040919091013590565b5f602082840312156106d3575f5ffd5b6106dc82610646565b9392505050565b5f5f604083850312156106f4575f5ffd5b6106fd83610646565b915061070b60208401610646565b90509250929050565b600181811c9082168061072857607f821691505b60208210810361074657634e487b7160e01b5f52602260045260245ffd5b50919050565b8082018082111561026557634e487b7160e01b5f52601160045260245ffdfea2646970667358221220e855f9b1a8d5052f7010b6988f370e866dd4e56eeb2ae5f6879078a143a43e7364736f6c634300081b0033",
        "nonce": "0x1",
        "chainId": "0x7a69"
      },
      "additionalContracts": [],
      "isFixedGasLimit": false
    },
    {
      "hash": "0xe1aff1e1c00782762cd4b41567e8be28f86e0dcfcc040d080cbb336f09eddce1",
      "transactionType": "CREATE",
      "contractName": "TestCalls",
      "contractAddress": "0x9fe46736679d2d9a65f0992f2272de9f3c7fa6e0",
      "function": null,
      "arguments": null,
      "transaction": {
        "from": "0xf39fd6e51aad88f6f4ce6ab8827279cfffb92266",
        "gas": "0x7bbff",
        "value": "0x0",
        "input": "0x6080604052348015600e575f5ffd5b506106148061001c5f395ff3fe608060405260043610610108575f3560e01c80639ae918c711610094578063d0b9678811610063578063d0b96788146101a8578063ddcaf02814610134578063edbd1b54146101a8578063f9602e76146101a8578063fb4f1ef31461022e57610108565b80639ae918c7146101dc578063b27049521461020d578063c290d69114610220578063c780a7341461022e57610108565b80636083f432116100db5780636083f4321461016b578063744f15d91461018a5780637630942d146101a8578063877813e014610108578063914efeb1146101c257610108565b806308522d70146101155780630f53116e146101345780631264b4f3146101515780633735b48314610151575b348015610113575f5ffd5b005b348015610120575f5ffd5b5061011361012f3660046103f0565b505050565b34801561013f575f5ffd5b5061011361014e366004610438565b50565b34801561015c575f5ffd5b5061011361014e366004610465565b348015610176575f5ffd5b5061011361018536600461049f565b610248565b348015610195575f5ffd5b506101136101a43660046104de565b5050565b3480156101b3575f5ffd5b506101136101a436600461049f565b3480156101cd575f5ffd5b5061011361014e3660046104fe565b3480156101e7575f5ffd5b506101fb6101f6366004610438565b6102ca565b60405190815260200160405180910390f35b348015610218575f5ffd5b50600a6101fb565b61011361014e366004610438565b348015610239575f5ffd5b506101136101a436600461055b565b60408051808201909152600e81526d63616c6c5f75696e74417272617960901b602082015261027790826102e8565b6102bf6040518060400160405280600e81526020016d63616c6c5f75696e74417272617960901b81525083835f8181106102b3576102b361058e565b905060200201356102e8565b61012f5f838361034b565b5f81815481106102d8575f80fd5b5f91825260209091200154905081565b6101a482826040516024016102fe9291906105a2565b60408051601f198184030181529190526020810180516001600160e01b0316632d839cb360e21b17905261014e815f6a636f6e736f6c652e6c6f6790505f5f835160208501845afa505050565b828054828255905f5260205f20908101928215610384579160200282015b82811115610384578235825591602001919060010190610369565b50610390929150610394565b5090565b5b80821115610390575f8155600101610395565b5f5f83601f8401126103b8575f5ffd5b50813567ffffffffffffffff8111156103cf575f5ffd5b6020830191508360208260051b85010111156103e9575f5ffd5b9250929050565b5f5f5f60408486031215610402575f5ffd5b83359250602084013567ffffffffffffffff81111561041f575f5ffd5b61042b868287016103a8565b9497909650939450505050565b5f60208284031215610448575f5ffd5b5035919050565b5f6040828403121561045f575f5ffd5b50919050565b5f60208284031215610475575f5ffd5b813567ffffffffffffffff81111561048b575f5ffd5b6104978482850161044f565b949350505050565b5f5f602083850312156104b0575f5ffd5b823567ffffffffffffffff8111156104c6575f5ffd5b6104d2858286016103a8565b90969095509350505050565b5f5f604083850312156104ef575f5ffd5b50508035926020909101359150565b5f6040828403121561050e575f5ffd5b8260408301111561045f575f5ffd5b5f5f83601f84011261052d575f5ffd5b50813567ffffffffffffffff811115610544575f5ffd5b6020830191508360208285010111156103e9575f5ffd5b5f5f6020838503121561056c575f5ffd5b823567ffffffffffffffff811115610582575f5ffd5b6104d28582860161051d565b634e487b7160e01b5f52603260045260245ffd5b604081525f83518060408401528060208601606085015e5f606082850101526060601f19601f830116840101915050826020830152939250505056fea2646970667358221220cf1f784202c1f4aae66299c9389d23e5d6740e8a48baf795a007ff2d3af4dd9964736f6c634300081b0033",
        "nonce": "0x2",
        "chainId": "0x7a69"
      },
      "additionalContracts": [],
      "isFixedGasLimit": false
    },
    {
      "hash": "0xf20d8ff41b6b60d942214359a90c4d945a2dcb9d7180c5ad5df2c96417c864d1",
      "transactionType": "CALL",
      "contractName": null,
      "contractAddress": "0xf39fd6e51aad88f6f4ce6ab8827279cfffb92266",
      "function": null,
      "arguments": null,
      "transaction": {
        "from": "0xf39fd6e51aad88f6f4ce6ab8827279cfffb92266",
        "to": "0xf39fd6e51aad88f6f4ce6ab8827279cfffb92266",
        "gas": "0x714d",
        "value": "0x8ac7230489e80000",
        "input": "0x",
        "nonce": "0x3",
        "chainId": "0x7a69"
      },
      "additionalContracts": [],
      "isFixedGasLimit": false
    },
    {
      "hash": "0x0c8be76bebac71eca0e4dcc30f2580afeb78a8eb3cfd0e058881943266172dc6",
      "transactionType": "CALL",
      "contractName": "NFT",
      "contractAddress": "0x5fbdb2315678afecb367f032d93f642f64180aa3",
      "function": "mint(address)",
      "arguments": [
        "0xf39Fd6e51aad88F6F4ce6aB8827279cffFb92266"
      ],
      "transaction": {
        "from": "0xf39fd6e51aad88f6f4ce6ab8827279cfffb92266",
        "to": "0x5fbdb2315678afecb367f032d93f642f64180aa3",
        "gas": "0x3a236",
        "value": "0x0",
        "input": "0x6a627842000000000000000000000000f39fd6e51aad88f6f4ce6ab8827279cfffb92266",
        "nonce": "0x4",
        "chainId": "0x7a69"
      },
      "additionalContracts": [],
      "isFixedGasLimit": false
    },
    {
      "hash": "0xb19047d8b7045751be2a4cb6156d47306140cec06a375307b6c50efbfadf48c7",
      "transactionType": "CALL",
      "contractName": "Token",
      "contractAddress": "0xe7f1725e7734ce288f8367e1bb143e90bb3f0512",
      "function": "mint(address,uint256)",
      "arguments": [
        "0xf39Fd6e51aad88F6F4ce6aB8827279cffFb92266",
        "100000000000000000000"
      ],
      "transaction": {
        "from": "0xf39fd6e51aad88f6f4ce6ab8827279cfffb92266",
        "to": "0xe7f1725e7734ce288f8367e1bb143e90bb3f0512",
        "gas": "0x186ea",
        "value": "0x0",
        "input": "0x40c10f19000000000000000000000000f39fd6e51aad88f6f4ce6ab8827279cfffb922660000000000000000000000000000000000000000000000056bc75e2d63100000",
        "nonce": "0x5",
        "chainId": "0x7a69"
      },
      "additionalContracts": [],
      "isFixedGasLimit": false
    },
    {
      "hash": "0x40a977f3ad3873bcd939f5a0d1c9e7bb6a1bda3898aaa2708547945eb7e43709",
      "transactionType": "CALL",
      "contractName": null,
      "contractAddress": "0x70997970c51812dc3a010c7d01b50e0d17dc79c8",
      "function": null,
      "arguments": null,
      "transaction": {
        "from": "0xf39fd6e51aad88f6f4ce6ab8827279cfffb92266",
        "to": "0x70997970c51812dc3a010c7d01b50e0d17dc79c8",
        "gas": "0x714d",
        "value": "0x8ac7230489e80000",
        "input": "0x",
        "nonce": "0x6",
        "chainId": "0x7a69"
      },
      "additionalContracts": [],
      "isFixedGasLimit": false
    },
    {
      "hash": "0x2c111c459d91a2e89a848caa91db087c57fb47ba21fd6082afe52dc975033c78",
      "transactionType": "CALL",
      "contractName": "NFT",
      "contractAddress": "0x5fbdb2315678afecb367f032d93f642f64180aa3",
      "function": "mint(address)",
      "arguments": [
        "0x70997970C51812dc3A010C7d01b50e0d17dc79C8"
      ],
      "transaction": {
        "from": "0xf39fd6e51aad88f6f4ce6ab8827279cfffb92266",
        "to": "0x5fbdb2315678afecb367f032d93f642f64180aa3",
        "gas": "0x35ecc",
        "value": "0x0",
        "input": "0x6a62784200000000000000000000000070997970c51812dc3a010c7d01b50e0d17dc79c8",
        "nonce": "0x7",
        "chainId": "0x7a69"
      },
      "additionalContracts": [],
      "isFixedGasLimit": false
    },
    {
      "hash": "0x2300e2f17cdc41373157d5acf9df0ba2793dadb7455755f225922313fa54b334",
      "transactionType": "CALL",
      "contractName": "Token",
      "contractAddress": "0xe7f1725e7734ce288f8367e1bb143e90bb3f0512",
      "function": "mint(address,uint256)",
      "arguments": [
        "0x70997970C51812dc3A010C7d01b50e0d17dc79C8",
        "100000000000000000000"
      ],
      "transaction": {
        "from": "0xf39fd6e51aad88f6f4ce6ab8827279cfffb92266",
        "to": "0xe7f1725e7734ce288f8367e1bb143e90bb3f0512",
        "gas": "0x114ee",
        "value": "0x0",
        "input": "0x40c10f1900000000000000000000000070997970c51812dc3a010c7d01b50e0d17dc79c80000000000000000000000000000000000000000000000056bc75e2d63100000",
        "nonce": "0x8",
        "chainId": "0x7a69"
      },
      "additionalContracts": [],
      "isFixedGasLimit": false
    },
    {
      "hash": "0x24912a504ab48437698cf7e485ad018578abe41a5b6b45715e10b37d4597b44d",
      "transactionType": "CALL",
      "contractName": null,
      "contractAddress": "0xf39fd6e51aad88f6f4ce6ab8827279cfffb92266",
      "function": null,
      "arguments": null,
      "transaction": {
        "from": "0xf39fd6e51aad88f6f4ce6ab8827279cfffb92266",
        "to": "0xf39fd6e51aad88f6f4ce6ab8827279cfffb92266",
        "gas": "0x714d",
        "value": "0x8ac7230489e80000",
        "input": "0x",
        "nonce": "0x9",
        "chainId": "0x7a69"
      },
      "additionalContracts": [],
      "isFixedGasLimit": false
    },
    {
      "hash": "0x07446e4155d91a6917106bcad880a6f2711ba7e97ae0e36dd18ff85d91426097",
      "transactionType": "CALL",
      "contractName": "NFT",
      "contractAddress": "0x5fbdb2315678afecb367f032d93f642f64180aa3",
      "function": "mint(address)",
      "arguments": [
        "0xf39Fd6e51aad88F6F4ce6aB8827279cffFb92266"
      ],
      "transaction": {
        "from": "0xf39fd6e51aad88f6f4ce6ab8827279cfffb92266",
        "to": "0x5fbdb2315678afecb367f032d93f642f64180aa3",
        "gas": "0x3307b",
        "value": "0x0",
        "input": "0x6a627842000000000000000000000000f39fd6e51aad88f6f4ce6ab8827279cfffb92266",
        "nonce": "0xa",
        "chainId": "0x7a69"
      },
      "additionalContracts": [],
      "isFixedGasLimit": false
    },
    {
      "hash": "0xec7d79c291d817734c9e524ad1a33cde5b15844faf4e011f44b7c8c0c9f6b0fa",
      "transactionType": "CALL",
      "contractName": "Token",
      "contractAddress": "0xe7f1725e7734ce288f8367e1bb143e90bb3f0512",
      "function": "mint(address,uint256)",
      "arguments": [
        "0xf39Fd6e51aad88F6F4ce6aB8827279cffFb92266",
        "100000000000000000000"
      ],
      "transaction": {
        "from": "0xf39fd6e51aad88f6f4ce6ab8827279cfffb92266",
        "to": "0xe7f1725e7734ce288f8367e1bb143e90bb3f0512",
        "gas": "0xc388",
        "value": "0x0",
        "input": "0x40c10f19000000000000000000000000f39fd6e51aad88f6f4ce6ab8827279cfffb922660000000000000000000000000000000000000000000000056bc75e2d63100000",
        "nonce": "0xb",
        "chainId": "0x7a69"
      },
      "additionalContracts": [],
      "isFixedGasLimit": false
    },
    {
      "hash": "0x735868ab3999ff1006c12f87aae92d4735ff9469908344bb9399dc92688fbddd",
      "transactionType": "CALL",
      "contractName": null,
      "contractAddress": "0x90f79bf6eb2c4f870365e785982e1f101e93b906",
      "function": null,
      "arguments": null,
      "transaction": {
        "from": "0xf39fd6e51aad88f6f4ce6ab8827279cfffb92266",
        "to": "0x90f79bf6eb2c4f870365e785982e1f101e93b906",
        "gas": "0x714d",
        "value": "0x8ac7230489e80000",
        "input": "0x",
        "nonce": "0xc",
        "chainId": "0x7a69"
      },
      "additionalContracts": [],
      "isFixedGasLimit": false
    },
    {
      "hash": "0x533841dc9fcee6df970646b7d69d28c42544d422cb6575d2dd684e1fc541f668",
      "transactionType": "CALL",
      "contractName": "NFT",
      "contractAddress": "0x5fbdb2315678afecb367f032d93f642f64180aa3",
      "function": "mint(address)",
      "arguments": [
        "0x90F79bf6EB2c4f870365E785982E1f101E93b906"
      ],
      "transaction": {
        "from": "0xf39fd6e51aad88f6f4ce6ab8827279cfffb92266",
        "to": "0x5fbdb2315678afecb367f032d93f642f64180aa3",
        "gas": "0x35ecc",
        "value": "0x0",
        "input": "0x6a62784200000000000000000000000090f79bf6eb2c4f870365e785982e1f101e93b906",
        "nonce": "0xd",
        "chainId": "0x7a69"
      },
      "additionalContracts": [],
      "isFixedGasLimit": false
    },
    {
      "hash": "0xc7d28dbc73e1dcb0ee27ef142d502a19b9ec2accb62a70438dea84e7e724bfaa",
      "transactionType": "CALL",
      "contractName": "Token",
      "contractAddress": "0xe7f1725e7734ce288f8367e1bb143e90bb3f0512",
      "function": "mint(address,uint256)",
      "arguments": [
        "0x90F79bf6EB2c4f870365E785982E1f101E93b906",
        "100000000000000000000"
      ],
      "transaction": {
        "from": "0xf39fd6e51aad88f6f4ce6ab8827279cfffb92266",
        "to": "0xe7f1725e7734ce288f8367e1bb143e90bb3f0512",
        "gas": "0x114ee",
        "value": "0x0",
        "input": "0x40c10f1900000000000000000000000090f79bf6eb2c4f870365e785982e1f101e93b9060000000000000000000000000000000000000000000000056bc75e2d63100000",
        "nonce": "0xe",
        "chainId": "0x7a69"
      },
      "additionalContracts": [],
      "isFixedGasLimit": false
    },
    {
      "hash": "0x6776f0420be2e1ef8ba1282dc62687d7b5bdd2392b1cb7bbcf8edf5c5be38cec",
      "transactionType": "CALL",
      "contractName": null,
      "contractAddress": "0x4b7f6bfd248f541eb5474f591d54bc29444946db",
      "function": null,
      "arguments": null,
      "transaction": {
        "from": "0xf39fd6e51aad88f6f4ce6ab8827279cfffb92266",
        "to": "0x4b7f6bfd248f541eb5474f591d54bc29444946db",
        "gas": "0x714d",
        "value": "0x8ac7230489e80000",
        "input": "0x",
        "nonce": "0xf",
        "chainId": "0x7a69"
      },
      "additionalContracts": [],
      "isFixedGasLimit": false
    },
    {
      "hash": "0xb99eb1edab5c95c207b4430dd1d34f654184ad1c1eedb2dcf239e98d54ac2ec2",
      "transactionType": "CALL",
      "contractName": "NFT",
      "contractAddress": "0x5fbdb2315678afecb367f032d93f642f64180aa3",
      "function": "mint(address)",
      "arguments": [
        "0x4b7f6bfD248f541eB5474f591D54Bc29444946db"
      ],
      "transaction": {
        "from": "0xf39fd6e51aad88f6f4ce6ab8827279cfffb92266",
        "to": "0x5fbdb2315678afecb367f032d93f642f64180aa3",
        "gas": "0x35ecc",
        "value": "0x0",
        "input": "0x6a6278420000000000000000000000004b7f6bfd248f541eb5474f591d54bc29444946db",
        "nonce": "0x10",
        "chainId": "0x7a69"
      },
      "additionalContracts": [],
      "isFixedGasLimit": false
    },
    {
      "hash": "0x151c993d2797e9e5b166bfe49d957a5e2961101efa7a63bc9841345c076864e3",
      "transactionType": "CALL",
      "contractName": "Token",
      "contractAddress": "0xe7f1725e7734ce288f8367e1bb143e90bb3f0512",
      "function": "mint(address,uint256)",
      "arguments": [
        "0x4b7f6bfD248f541eB5474f591D54Bc29444946db",
        "100000000000000000000"
      ],
      "transaction": {
        "from": "0xf39fd6e51aad88f6f4ce6ab8827279cfffb92266",
        "to": "0xe7f1725e7734ce288f8367e1bb143e90bb3f0512",
        "gas": "0x114ee",
        "value": "0x0",
        "input": "0x40c10f190000000000000000000000004b7f6bfd248f541eb5474f591d54bc29444946db0000000000000000000000000000000000000000000000056bc75e2d63100000",
        "nonce": "0x11",
        "chainId": "0x7a69"
      },
      "additionalContracts": [],
      "isFixedGasLimit": false
    },
    {
      "hash": "0x807862bf53b7995fd40b38c5272e6e8ffb7fb0029230fcc3a82f79eb5d3df610",
      "transactionType": "CALL",
      "contractName": null,
      "contractAddress": "0xa215c23e89b521db023e19f77263adee21e8131f",
      "function": null,
      "arguments": null,
      "transaction": {
        "from": "0xf39fd6e51aad88f6f4ce6ab8827279cfffb92266",
        "to": "0xa215c23e89b521db023e19f77263adee21e8131f",
        "gas": "0x714d",
        "value": "0x8ac7230489e80000",
        "input": "0x",
        "nonce": "0x12",
        "chainId": "0x7a69"
      },
      "additionalContracts": [],
      "isFixedGasLimit": false
    },
    {
      "hash": "0x2d62a036384995c426142ca4f2cf72fd3173b0867e4390043c83af07e4738629",
      "transactionType": "CALL",
      "contractName": "NFT",
      "contractAddress": "0x5fbdb2315678afecb367f032d93f642f64180aa3",
      "function": "mint(address)",
      "arguments": [
        "0xA215c23e89B521Db023e19F77263ADEE21e8131F"
      ],
      "transaction": {
        "from": "0xf39fd6e51aad88f6f4ce6ab8827279cfffb92266",
        "to": "0x5fbdb2315678afecb367f032d93f642f64180aa3",
        "gas": "0x35ecc",
        "value": "0x0",
        "input": "0x6a627842000000000000000000000000a215c23e89b521db023e19f77263adee21e8131f",
        "nonce": "0x13",
        "chainId": "0x7a69"
      },
      "additionalContracts": [],
      "isFixedGasLimit": false
    },
    {
      "hash": "0x21481dfff79fc723ca4e201af9f803290dac9d72836b600e3c5d62dc93cc1af8",
      "transactionType": "CALL",
      "contractName": "Token",
      "contractAddress": "0xe7f1725e7734ce288f8367e1bb143e90bb3f0512",
      "function": "mint(address,uint256)",
      "arguments": [
        "0xA215c23e89B521Db023e19F77263ADEE21e8131F",
        "100000000000000000000"
      ],
      "transaction": {
        "from": "0xf39fd6e51aad88f6f4ce6ab8827279cfffb92266",
        "to": "0xe7f1725e7734ce288f8367e1bb143e90bb3f0512",
        "gas": "0x114ee",
        "value": "0x0",
        "input": "0x40c10f19000000000000000000000000a215c23e89b521db023e19f77263adee21e8131f0000000000000000000000000000000000000000000000056bc75e2d63100000",
        "nonce": "0x14",
        "chainId": "0x7a69"
      },
      "additionalContracts": [],
      "isFixedGasLimit": false
    },
    {
      "hash": "0xc6e7b63f37d5f7f2cb15e75a1891853e3f5d69bbba63ad06b234e242d0f429b2",
      "transactionType": "CALL",
      "contractName": null,
      "contractAddress": "0x0077014b4c74d9b1688847386b24ed23fdf14be8",
      "function": null,
      "arguments": null,
      "transaction": {
        "from": "0xf39fd6e51aad88f6f4ce6ab8827279cfffb92266",
        "to": "0x0077014b4c74d9b1688847386b24ed23fdf14be8",
        "gas": "0x714d",
        "value": "0x8ac7230489e80000",
        "input": "0x",
        "nonce": "0x15",
        "chainId": "0x7a69"
      },
      "additionalContracts": [],
      "isFixedGasLimit": false
    },
    {
      "hash": "0x27789a37312fac910516932c8ef80786d714f00a83ea817d080b29d132acea68",
      "transactionType": "CALL",
      "contractName": "NFT",
      "contractAddress": "0x5fbdb2315678afecb367f032d93f642f64180aa3",
      "function": "mint(address)",
      "arguments": [
        "0x0077014b4C74d9b1688847386B24Ed23Fdf14Be8"
      ],
      "transaction": {
        "from": "0xf39fd6e51aad88f6f4ce6ab8827279cfffb92266",
        "to": "0x5fbdb2315678afecb367f032d93f642f64180aa3",
        "gas": "0x32ecc",
        "value": "0x0",
        "input": "0x6a6278420000000000000000000000000077014b4c74d9b1688847386b24ed23fdf14be8",
        "nonce": "0x16",
        "chainId": "0x7a69"
      },
      "additionalContracts": [],
      "isFixedGasLimit": false
    },
    {
      "hash": "0x584adfad4c869f3d093e127ccb37ffdc081036e9b235dceae4b3debfdd6c039f",
      "transactionType": "CALL",
      "contractName": "Token",
      "contractAddress": "0xe7f1725e7734ce288f8367e1bb143e90bb3f0512",
      "function": "mint(address,uint256)",
      "arguments": [
        "0x0077014b4C74d9b1688847386B24Ed23Fdf14Be8",
        "100000000000000000000"
      ],
      "transaction": {
        "from": "0xf39fd6e51aad88f6f4ce6ab8827279cfffb92266",
        "to": "0xe7f1725e7734ce288f8367e1bb143e90bb3f0512",
        "gas": "0x12527",
        "value": "0x0",
        "input": "0x40c10f190000000000000000000000000077014b4c74d9b1688847386b24ed23fdf14be80000000000000000000000000000000000000000000000056bc75e2d63100000",
        "nonce": "0x17",
        "chainId": "0x7a69"
      },
      "additionalContracts": [],
      "isFixedGasLimit": false
    }
  ],
  "receipts": [
    {
      "status": "0x1",
      "cumulativeGasUsed": "0x17012a",
      "logs": [],
      "logsBloom": "0x00000000000000000000000000000000000000000000000000000000000000000000000000000000000000000000000000000000000000000000000000000000000000000000000000000000000000000000000000000000000000000000000000000000000000000000000000000000000000000000000000000000000000000000000000000000000000000000000000000000000000000000000000000000000000000000000000000000000000000000000000000000000000000000000000000000000000000000000000000000000000000000000000000000000000000000000000000000000000000000000000000000000000000000000000000000",
      "type": "0x2",
      "transactionHash": "0x30d50cdbb7f63822a768a664b490f66888fb3db17d657d7bb48de1e14ad02c21",
      "transactionIndex": "0x0",
      "blockHash": "0x208f5589e1329873e53fa9c9fd938d977ca46ecc9642c387235718b9938f612d",
      "blockNumber": "0x1",
      "gasUsed": "0x17012a",
      "effectiveGasPrice": "0x3b9aca01",
      "blobGasPrice": "0x1",
      "from": "0xf39fd6e51aad88f6f4ce6ab8827279cfffb92266",
      "to": null,
      "contractAddress": "0x5fbdb2315678afecb367f032d93f642f64180aa3"
    },
    {
      "status": "0x1",
      "cumulativeGasUsed": "0x80d01",
      "logs": [],
      "logsBloom": "0x00000000000000000000000000000000000000000000000000000000000000000000000000000000000000000000000000000000000000000000000000000000000000000000000000000000000000000000000000000000000000000000000000000000000000000000000000000000000000000000000000000000000000000000000000000000000000000000000000000000000000000000000000000000000000000000000000000000000000000000000000000000000000000000000000000000000000000000000000000000000000000000000000000000000000000000000000000000000000000000000000000000000000000000000000000000",
      "type": "0x2",
      "transactionHash": "0xf3a02032271e9a0cf408738d8b3d0fc40a84e95d23075b0167a7f085edd9f4d4",
      "transactionIndex": "0x0",
      "blockHash": "0x1c8eecb0b9210b9fe5c9aa397a2cd997532e9bedc616201475ca280dfc8d731a",
      "blockNumber": "0x2",
      "gasUsed": "0x80d01",
      "effectiveGasPrice": "0x34e7251f",
      "blobGasPrice": "0x1",
      "from": "0xf39fd6e51aad88f6f4ce6ab8827279cfffb92266",
      "to": null,
      "contractAddress": "0xe7f1725e7734ce288f8367e1bb143e90bb3f0512"
    },
    {
      "status": "0x1",
      "cumulativeGasUsed": "0x5f313",
      "logs": [],
      "logsBloom": "0x00000000000000000000000000000000000000000000000000000000000000000000000000000000000000000000000000000000000000000000000000000000000000000000000000000000000000000000000000000000000000000000000000000000000000000000000000000000000000000000000000000000000000000000000000000000000000000000000000000000000000000000000000000000000000000000000000000000000000000000000000000000000000000000000000000000000000000000000000000000000000000000000000000000000000000000000000000000000000000000000000000000000000000000000000000000",
      "type": "0x2",
      "transactionHash": "0xe1aff1e1c00782762cd4b41567e8be28f86e0dcfcc040d080cbb336f09eddce1",
      "transactionIndex": "0x0",
      "blockHash": "0x7fd47fa45740069c6921d825026543e481e40748545603b45a4956a634c39548",
      "blockNumber": "0x3",
      "gasUsed": "0x5f313",
      "effectiveGasPrice": "0x2e85cc6b",
      "blobGasPrice": "0x1",
      "from": "0xf39fd6e51aad88f6f4ce6ab8827279cfffb92266",
      "to": null,
      "contractAddress": "0x9fe46736679d2d9a65f0992f2272de9f3c7fa6e0"
    },
    {
      "status": "0x1",
      "cumulativeGasUsed": "0x5208",
      "logs": [],
      "logsBloom": "0x00000000000000000000000000000000000000000000000000000000000000000000000000000000000000000000000000000000000000000000000000000000000000000000000000000000000000000000000000000000000000000000000000000000000000000000000000000000000000000000000000000000000000000000000000000000000000000000000000000000000000000000000000000000000000000000000000000000000000000000000000000000000000000000000000000000000000000000000000000000000000000000000000000000000000000000000000000000000000000000000000000000000000000000000000000000",
      "type": "0x2",
      "transactionHash": "0xf20d8ff41b6b60d942214359a90c4d945a2dcb9d7180c5ad5df2c96417c864d1",
      "transactionIndex": "0x0",
      "blockHash": "0x4602abfb9f383d1010cbcc413539e8405202cc812d46cce99805489fc146d7d2",
      "blockNumber": "0x4",
      "gasUsed": "0x5208",
      "effectiveGasPrice": "0x28dbc575",
      "blobGasPrice": "0x1",
      "from": "0xf39fd6e51aad88f6f4ce6ab8827279cfffb92266",
      "to": "0xf39fd6e51aad88f6f4ce6ab8827279cfffb92266",
      "contractAddress": null
    },
    {
      "status": "0x1",
      "cumulativeGasUsed": "0x27c0b",
      "logs": [
        {
          "address": "0x5fbdb2315678afecb367f032d93f642f64180aa3",
          "topics": [
            "0xddf252ad1be2c89b69c2b068fc378daa952ba7f163c4a11628f55a4df523b3ef",
            "0x0000000000000000000000000000000000000000000000000000000000000000",
            "0x000000000000000000000000f39fd6e51aad88f6f4ce6ab8827279cfffb92266",
            "0x0000000000000000000000000000000000000000000000000000000000000001"
          ],
          "data": "0x",
          "blockHash": "0xcbc31e4f9750ef45d95bc0e87f50a0562aef6a98c409ed680360f9de065c0344",
          "blockNumber": "0x5",
          "blockTimestamp": "0x675dfd6f",
          "transactionHash": "0x0c8be76bebac71eca0e4dcc30f2580afeb78a8eb3cfd0e058881943266172dc6",
          "transactionIndex": "0x0",
          "logIndex": "0x0",
          "removed": false
        }
      ],
      "logsBloom": "0x00000000000000000000000000000000000000000000000000000000000000000000000000000000000000000000000000000000000000000000000000040000000000000000000000000008000000000000000000040000000000000000000000000040020000000000000100000800000000000000000000000010000000000000000000000000000000000000000000000000000000000000000200000000000000000000000000000000000000000000000000000000000000000000000000000042000000200000000000000000000000002000000000000000000060000000000000000000000000000000000000000000000000000000000000000000",
      "type": "0x2",
      "transactionHash": "0x0c8be76bebac71eca0e4dcc30f2580afeb78a8eb3cfd0e058881943266172dc6",
      "transactionIndex": "0x0",
      "blockHash": "0xcbc31e4f9750ef45d95bc0e87f50a0562aef6a98c409ed680360f9de065c0344",
      "blockNumber": "0x5",
      "gasUsed": "0x27c0b",
      "effectiveGasPrice": "0x23c22160",
      "blobGasPrice": "0x1",
      "from": "0xf39fd6e51aad88f6f4ce6ab8827279cfffb92266",
      "to": "0x5fbdb2315678afecb367f032d93f642f64180aa3",
      "contractAddress": null
    },
    {
      "status": "0x1",
      "cumulativeGasUsed": "0x10b4b",
      "logs": [
        {
          "address": "0xe7f1725e7734ce288f8367e1bb143e90bb3f0512",
          "topics": [
            "0xddf252ad1be2c89b69c2b068fc378daa952ba7f163c4a11628f55a4df523b3ef",
            "0x0000000000000000000000000000000000000000000000000000000000000000",
            "0x000000000000000000000000f39fd6e51aad88f6f4ce6ab8827279cfffb92266"
          ],
          "data": "0x0000000000000000000000000000000000000000000000056bc75e2d63100000",
          "blockHash": "0x664027b44280c9f95e21261f254bc7390f3d26a4232aa518108f45aad0c5316d",
          "blockNumber": "0x6",
          "blockTimestamp": "0x675dfd6f",
          "transactionHash": "0xb19047d8b7045751be2a4cb6156d47306140cec06a375307b6c50efbfadf48c7",
          "transactionIndex": "0x0",
          "logIndex": "0x0",
          "removed": false
        }
      ],
      "logsBloom": "0x00000000000000000000000000000000000000000000000000000000000000000000000000000000000000000000000010000000000000000000000000000000000000000000000000000008000000000000000000000000000000000000000000000000020000000000000100000800000000000000000000000010000000000000000000000000000000000000000000000000000000000000000000000000000000000000000000000000000000000000000000000000000000000000000000000002000000200000000000001000000000002000000000000000000020000000000000000000000000000000000000000000000000800000000000000000",
      "type": "0x2",
      "transactionHash": "0xb19047d8b7045751be2a4cb6156d47306140cec06a375307b6c50efbfadf48c7",
      "transactionIndex": "0x0",
      "blockHash": "0x664027b44280c9f95e21261f254bc7390f3d26a4232aa518108f45aad0c5316d",
      "blockNumber": "0x6",
      "gasUsed": "0x10b4b",
      "effectiveGasPrice": "0x1f564906",
      "blobGasPrice": "0x1",
      "from": "0xf39fd6e51aad88f6f4ce6ab8827279cfffb92266",
      "to": "0xe7f1725e7734ce288f8367e1bb143e90bb3f0512",
      "contractAddress": null
    },
    {
      "status": "0x1",
      "cumulativeGasUsed": "0x5208",
      "logs": [],
      "logsBloom": "0x00000000000000000000000000000000000000000000000000000000000000000000000000000000000000000000000000000000000000000000000000000000000000000000000000000000000000000000000000000000000000000000000000000000000000000000000000000000000000000000000000000000000000000000000000000000000000000000000000000000000000000000000000000000000000000000000000000000000000000000000000000000000000000000000000000000000000000000000000000000000000000000000000000000000000000000000000000000000000000000000000000000000000000000000000000000",
      "type": "0x2",
      "transactionHash": "0x40a977f3ad3873bcd939f5a0d1c9e7bb6a1bda3898aaa2708547945eb7e43709",
      "transactionIndex": "0x0",
      "blockHash": "0xa98a3fa7fc6be94dfb897111da0d75ee9d15744fc601209f9dfc22024275e101",
      "blockNumber": "0x7",
      "gasUsed": "0x5208",
      "effectiveGasPrice": "0x1b7012f9",
      "blobGasPrice": "0x1",
      "from": "0xf39fd6e51aad88f6f4ce6ab8827279cfffb92266",
      "to": "0x70997970c51812dc3a010c7d01b50e0d17dc79c8",
      "contractAddress": null
    },
    {
      "status": "0x1",
      "cumulativeGasUsed": "0x24df3",
      "logs": [
        {
          "address": "0x5fbdb2315678afecb367f032d93f642f64180aa3",
          "topics": [
            "0xddf252ad1be2c89b69c2b068fc378daa952ba7f163c4a11628f55a4df523b3ef",
            "0x0000000000000000000000000000000000000000000000000000000000000000",
            "0x00000000000000000000000070997970c51812dc3a010c7d01b50e0d17dc79c8",
            "0x0000000000000000000000000000000000000000000000000000000000000002"
          ],
          "data": "0x",
          "blockHash": "0x886512aa7a939a6f31c0c3cd011c33ea17ac26ebd1775066cef5b19bb0982e62",
          "blockNumber": "0x8",
          "blockTimestamp": "0x675dfd6f",
          "transactionHash": "0x2c111c459d91a2e89a848caa91db087c57fb47ba21fd6082afe52dc975033c78",
          "transactionIndex": "0x0",
          "logIndex": "0x0",
          "removed": false
        }
      ],
      "logsBloom": "0x04000000000000000002000000000000000000000000000000000000000000000000000000000000000000000000000000000000000000000000000000000000000000000000000000000008000000000000000000000000000000000000000000000840020000000000000000000800000000000000000000000010000000000000000000000000000000000000000000000000000000000000000200000000000000000000000000000100000000000000000000000000000000000000000000000042000000000000000000000000000000000000000000000000000020000000000000000000000000000000000001000000008000000000000000000000",
      "type": "0x2",
      "transactionHash": "0x2c111c459d91a2e89a848caa91db087c57fb47ba21fd6082afe52dc975033c78",
      "transactionIndex": "0x0",
      "blockHash": "0x886512aa7a939a6f31c0c3cd011c33ea17ac26ebd1775066cef5b19bb0982e62",
      "blockNumber": "0x8",
      "gasUsed": "0x24df3",
      "effectiveGasPrice": "0x18034b48",
      "blobGasPrice": "0x1",
      "from": "0xf39fd6e51aad88f6f4ce6ab8827279cfffb92266",
      "to": "0x5fbdb2315678afecb367f032d93f642f64180aa3",
      "contractAddress": null
    },
    {
      "status": "0x1",
      "cumulativeGasUsed": "0xc87f",
      "logs": [
        {
          "address": "0xe7f1725e7734ce288f8367e1bb143e90bb3f0512",
          "topics": [
            "0xddf252ad1be2c89b69c2b068fc378daa952ba7f163c4a11628f55a4df523b3ef",
            "0x0000000000000000000000000000000000000000000000000000000000000000",
            "0x00000000000000000000000070997970c51812dc3a010c7d01b50e0d17dc79c8"
          ],
          "data": "0x0000000000000000000000000000000000000000000000056bc75e2d63100000",
          "blockHash": "0xfb420d124887402bca06909e5931cedbfc3d6567308dbcc05e06ef8b972603d8",
          "blockNumber": "0x9",
          "blockTimestamp": "0x675dfd6f",
          "transactionHash": "0x2300e2f17cdc41373157d5acf9df0ba2793dadb7455755f225922313fa54b334",
          "transactionIndex": "0x0",
          "logIndex": "0x0",
          "removed": false
        }
      ],
      "logsBloom": "0x00000000000000000002000000000000000000000000000000000000000000000000000000000000000000000000000010000000000000000000000000000000000000000000000000000008000000000000000000000000000000000000000000000800020000000000000000000800000000000000000000000010000000000000000000000000000000000000000000000000000000000000000000000000000000000000000000000000000000000000000000000000000000000000000000000002000000000000000000001000000000000000000000000000000020000000000000000000000000000000000001000000000000800000000000000000",
      "type": "0x2",
      "transactionHash": "0x2300e2f17cdc41373157d5acf9df0ba2793dadb7455755f225922313fa54b334",
      "transactionIndex": "0x0",
      "blockHash": "0xfb420d124887402bca06909e5931cedbfc3d6567308dbcc05e06ef8b972603d8",
      "blockNumber": "0x9",
      "gasUsed": "0xc87f",
      "effectiveGasPrice": "0x150a9e7a",
      "blobGasPrice": "0x1",
      "from": "0xf39fd6e51aad88f6f4ce6ab8827279cfffb92266",
      "to": "0xe7f1725e7734ce288f8367e1bb143e90bb3f0512",
      "contractAddress": null
    },
    {
      "status": "0x1",
      "cumulativeGasUsed": "0x5208",
      "logs": [],
      "logsBloom": "0x00000000000000000000000000000000000000000000000000000000000000000000000000000000000000000000000000000000000000000000000000000000000000000000000000000000000000000000000000000000000000000000000000000000000000000000000000000000000000000000000000000000000000000000000000000000000000000000000000000000000000000000000000000000000000000000000000000000000000000000000000000000000000000000000000000000000000000000000000000000000000000000000000000000000000000000000000000000000000000000000000000000000000000000000000000000",
      "type": "0x2",
      "transactionHash": "0x24912a504ab48437698cf7e485ad018578abe41a5b6b45715e10b37d4597b44d",
      "transactionIndex": "0x0",
      "blockHash": "0xe8ee4eb34ff9f70c10f194a6e054566d1d27d381b133c374ea3eb6758697a1a5",
      "blockNumber": "0xa",
      "gasUsed": "0x5208",
      "effectiveGasPrice": "0x126b987e",
      "blobGasPrice": "0x1",
      "from": "0xf39fd6e51aad88f6f4ce6ab8827279cfffb92266",
      "to": "0xf39fd6e51aad88f6f4ce6ab8827279cfffb92266",
      "contractAddress": null
    },
    {
      "status": "0x1",
      "cumulativeGasUsed": "0x24f1f",
      "logs": [
        {
          "address": "0x5fbdb2315678afecb367f032d93f642f64180aa3",
          "topics": [
            "0xddf252ad1be2c89b69c2b068fc378daa952ba7f163c4a11628f55a4df523b3ef",
            "0x0000000000000000000000000000000000000000000000000000000000000000",
            "0x000000000000000000000000f39fd6e51aad88f6f4ce6ab8827279cfffb92266",
            "0x0000000000000000000000000000000000000000000000000000000000000003"
          ],
          "data": "0x",
          "blockHash": "0xf4b53e313ef610247918d0c66640539165db8e396669c4cae4dcd69d3f4c43a0",
          "blockNumber": "0xb",
          "blockTimestamp": "0x675dfd6f",
          "transactionHash": "0x07446e4155d91a6917106bcad880a6f2711ba7e97ae0e36dd18ff85d91426097",
          "transactionIndex": "0x0",
          "logIndex": "0x0",
          "removed": false
        }
      ],
      "logsBloom": "0x00000000000000000000000000000000000000000000000000000000000000000000000000000000000000000000000000000000020000000000000000000000000000000000000000000008000000000000000000000000000000000000000000000040020000000000000100000800000000000000000000000010000000000000000000000000000000000000000000000000000000000000000200000000000000000000000000000000000000000000000000800000000000000000400000000042000000200000000000000000000000002000000000000000000020000000000000000000000000000000000000000000000000000000000000000000",
      "type": "0x2",
      "transactionHash": "0x07446e4155d91a6917106bcad880a6f2711ba7e97ae0e36dd18ff85d91426097",
      "transactionIndex": "0x0",
      "blockHash": "0xf4b53e313ef610247918d0c66640539165db8e396669c4cae4dcd69d3f4c43a0",
      "blockNumber": "0xb",
      "gasUsed": "0x24f1f",
      "effectiveGasPrice": "0x101ef8b1",
      "blobGasPrice": "0x1",
      "from": "0xf39fd6e51aad88f6f4ce6ab8827279cfffb92266",
      "to": "0x5fbdb2315678afecb367f032d93f642f64180aa3",
      "contractAddress": null
    },
    {
      "status": "0x1",
      "cumulativeGasUsed": "0x85b3",
      "logs": [
        {
          "address": "0xe7f1725e7734ce288f8367e1bb143e90bb3f0512",
          "topics": [
            "0xddf252ad1be2c89b69c2b068fc378daa952ba7f163c4a11628f55a4df523b3ef",
            "0x0000000000000000000000000000000000000000000000000000000000000000",
            "0x000000000000000000000000f39fd6e51aad88f6f4ce6ab8827279cfffb92266"
          ],
          "data": "0x0000000000000000000000000000000000000000000000056bc75e2d63100000",
          "blockHash": "0x131ff0b370e7e671488126037baf0bb1aab7f4bfe2e2b9580d7e5eb4a6f291e5",
          "blockNumber": "0xc",
          "blockTimestamp": "0x675dfd6f",
          "transactionHash": "0xec7d79c291d817734c9e524ad1a33cde5b15844faf4e011f44b7c8c0c9f6b0fa",
          "transactionIndex": "0x0",
          "logIndex": "0x0",
          "removed": false
        }
      ],
      "logsBloom": "0x00000000000000000000000000000000000000000000000000000000000000000000000000000000000000000000000010000000000000000000000000000000000000000000000000000008000000000000000000000000000000000000000000000000020000000000000100000800000000000000000000000010000000000000000000000000000000000000000000000000000000000000000000000000000000000000000000000000000000000000000000000000000000000000000000000002000000200000000000001000000000002000000000000000000020000000000000000000000000000000000000000000000000800000000000000000",
      "type": "0x2",
      "transactionHash": "0xec7d79c291d817734c9e524ad1a33cde5b15844faf4e011f44b7c8c0c9f6b0fa",
      "transactionIndex": "0x0",
      "blockHash": "0x131ff0b370e7e671488126037baf0bb1aab7f4bfe2e2b9580d7e5eb4a6f291e5",
      "blockNumber": "0xc",
      "gasUsed": "0x85b3",
      "effectiveGasPrice": "0xe204dec",
      "blobGasPrice": "0x1",
      "from": "0xf39fd6e51aad88f6f4ce6ab8827279cfffb92266",
      "to": "0xe7f1725e7734ce288f8367e1bb143e90bb3f0512",
      "contractAddress": null
    },
    {
      "status": "0x1",
      "cumulativeGasUsed": "0x5208",
      "logs": [],
      "logsBloom": "0x00000000000000000000000000000000000000000000000000000000000000000000000000000000000000000000000000000000000000000000000000000000000000000000000000000000000000000000000000000000000000000000000000000000000000000000000000000000000000000000000000000000000000000000000000000000000000000000000000000000000000000000000000000000000000000000000000000000000000000000000000000000000000000000000000000000000000000000000000000000000000000000000000000000000000000000000000000000000000000000000000000000000000000000000000000000",
      "type": "0x2",
      "transactionHash": "0x735868ab3999ff1006c12f87aae92d4735ff9469908344bb9399dc92688fbddd",
      "transactionIndex": "0x0",
      "blockHash": "0xd115dfdaac3888fb03d4d8dd6e81f455d46d608537a1126525a1ad1692c55750",
      "blockNumber": "0xd",
      "gasUsed": "0x5208",
      "effectiveGasPrice": "0xc5d4c3d",
      "blobGasPrice": "0x1",
      "from": "0xf39fd6e51aad88f6f4ce6ab8827279cfffb92266",
      "to": "0x90f79bf6eb2c4f870365e785982e1f101e93b906",
      "contractAddress": null
    },
    {
      "status": "0x1",
      "cumulativeGasUsed": "0x24df3",
      "logs": [
        {
          "address": "0x5fbdb2315678afecb367f032d93f642f64180aa3",
          "topics": [
            "0xddf252ad1be2c89b69c2b068fc378daa952ba7f163c4a11628f55a4df523b3ef",
            "0x0000000000000000000000000000000000000000000000000000000000000000",
            "0x00000000000000000000000090f79bf6eb2c4f870365e785982e1f101e93b906",
            "0x0000000000000000000000000000000000000000000000000000000000000004"
          ],
          "data": "0x",
          "blockHash": "0x40e931f832bfbbbbccf3b0bbb397fa54bdcd172d57fb6e61cd7dfd3e1b1adf3a",
          "blockNumber": "0xe",
          "blockTimestamp": "0x675dfd6f",
          "transactionHash": "0x533841dc9fcee6df970646b7d69d28c42544d422cb6575d2dd684e1fc541f668",
          "transactionIndex": "0x0",
          "logIndex": "0x0",
          "removed": false
        }
      ],
      "logsBloom": "0x00000000000000000000000000000000000000000000000000000000000000000000000000000000000000000000000000000000000000000000000000000000000000000000000000000008000000000000000000000000000000000000000008000040020000000000000000000800000000000000000000000010000000000000000000000000000000000000000000000000000000000400000200000000000000000000000000000000000000000000000000000000002000000000000000000042000000000000000000000000400000008000000000000000000020000000000000000000000010000000000000000000000000000000000000000000",
      "type": "0x2",
      "transactionHash": "0x533841dc9fcee6df970646b7d69d28c42544d422cb6575d2dd684e1fc541f668",
      "transactionIndex": "0x0",
      "blockHash": "0x40e931f832bfbbbbccf3b0bbb397fa54bdcd172d57fb6e61cd7dfd3e1b1adf3a",
      "blockNumber": "0xe",
      "gasUsed": "0x24df3",
      "effectiveGasPrice": "0xad23084",
      "blobGasPrice": "0x1",
      "from": "0xf39fd6e51aad88f6f4ce6ab8827279cfffb92266",
      "to": "0x5fbdb2315678afecb367f032d93f642f64180aa3",
      "contractAddress": null
    },
    {
      "status": "0x1",
      "cumulativeGasUsed": "0xc87f",
      "logs": [
        {
          "address": "0xe7f1725e7734ce288f8367e1bb143e90bb3f0512",
          "topics": [
            "0xddf252ad1be2c89b69c2b068fc378daa952ba7f163c4a11628f55a4df523b3ef",
            "0x0000000000000000000000000000000000000000000000000000000000000000",
            "0x00000000000000000000000090f79bf6eb2c4f870365e785982e1f101e93b906"
          ],
          "data": "0x0000000000000000000000000000000000000000000000056bc75e2d63100000",
          "blockHash": "0x2deabbb6cd5fd73da6c9912bfa793274d927bce3157b19e2ab952d299ea8c214",
          "blockNumber": "0xf",
          "blockTimestamp": "0x675dfd6f",
          "transactionHash": "0xc7d28dbc73e1dcb0ee27ef142d502a19b9ec2accb62a70438dea84e7e724bfaa",
          "transactionIndex": "0x0",
          "logIndex": "0x0",
          "removed": false
        }
      ],
      "logsBloom": "0x00000000000000000000000000000000000000000000000000000000000000000000000000000000000000000000000010000000000000000000000000000000000000000000000000000008000000000000000000000000000000000000000000000000020000000000000000000800000000000000000000000010000000000000000000000000000000000000000000000000000000000400000000000000000000000000000000000000000000000000000000000000000000000000000000000002000000000000000000001000400000000000000000000000000020000000000000000000000010000000000000000000000000800000000000000000",
      "type": "0x2",
      "transactionHash": "0xc7d28dbc73e1dcb0ee27ef142d502a19b9ec2accb62a70438dea84e7e724bfaa",
      "transactionIndex": "0x0",
      "blockHash": "0x2deabbb6cd5fd73da6c9912bfa793274d927bce3157b19e2ab952d299ea8c214",
      "blockNumber": "0xf",
      "gasUsed": "0xc87f",
      "effectiveGasPrice": "0x97b66fc",
      "blobGasPrice": "0x1",
      "from": "0xf39fd6e51aad88f6f4ce6ab8827279cfffb92266",
      "to": "0xe7f1725e7734ce288f8367e1bb143e90bb3f0512",
      "contractAddress": null
    },
    {
      "status": "0x1",
      "cumulativeGasUsed": "0x5208",
      "logs": [],
      "logsBloom": "0x00000000000000000000000000000000000000000000000000000000000000000000000000000000000000000000000000000000000000000000000000000000000000000000000000000000000000000000000000000000000000000000000000000000000000000000000000000000000000000000000000000000000000000000000000000000000000000000000000000000000000000000000000000000000000000000000000000000000000000000000000000000000000000000000000000000000000000000000000000000000000000000000000000000000000000000000000000000000000000000000000000000000000000000000000000000",
      "type": "0x2",
      "transactionHash": "0x6776f0420be2e1ef8ba1282dc62687d7b5bdd2392b1cb7bbcf8edf5c5be38cec",
      "transactionIndex": "0x0",
      "blockHash": "0xc0043a9adacea4cdfbf074bc9e7b00ffc05f01d8535a138614ba7601b9c05a4b",
      "blockNumber": "0x10",
      "gasUsed": "0x5208",
      "effectiveGasPrice": "0x84d03e9",
      "blobGasPrice": "0x1",
      "from": "0xf39fd6e51aad88f6f4ce6ab8827279cfffb92266",
      "to": "0x4b7f6bfd248f541eb5474f591d54bc29444946db",
      "contractAddress": null
    },
    {
      "status": "0x1",
      "cumulativeGasUsed": "0x24df3",
      "logs": [
        {
          "address": "0x5fbdb2315678afecb367f032d93f642f64180aa3",
          "topics": [
            "0xddf252ad1be2c89b69c2b068fc378daa952ba7f163c4a11628f55a4df523b3ef",
            "0x0000000000000000000000000000000000000000000000000000000000000000",
            "0x0000000000000000000000004b7f6bfd248f541eb5474f591d54bc29444946db",
            "0x0000000000000000000000000000000000000000000000000000000000000005"
          ],
          "data": "0x",
          "blockHash": "0xfbf5b54a832fb41ab77ac041d8eccd0c80abbaf9239783cbe84baf9feccb9a57",
          "blockNumber": "0x11",
          "blockTimestamp": "0x675dfd6f",
          "transactionHash": "0xb99eb1edab5c95c207b4430dd1d34f654184ad1c1eedb2dcf239e98d54ac2ec2",
          "transactionIndex": "0x0",
          "logIndex": "0x0",
          "removed": false
        }
      ],
      "logsBloom": "0x00000000000000000000000000000000000000000000000000000000000000000000000000000000000000000000200000000000000000000000000000000000000010000000000000000008000000000000100000000000000000000000000000000040020000000000000000000800000000000000000000000010000000000000000000000000000000000000001000000800000000000000000200000000000000000000000000000000000000000000000000000000000000000000000000000042000000000000000000000000000000000000000000000000000020000000000000000000000000000000000000000000000000000000000001000000",
      "type": "0x2",
      "transactionHash": "0xb99eb1edab5c95c207b4430dd1d34f654184ad1c1eedb2dcf239e98d54ac2ec2",
      "transactionIndex": "0x0",
      "blockHash": "0xfbf5b54a832fb41ab77ac041d8eccd0c80abbaf9239783cbe84baf9feccb9a57",
      "blockNumber": "0x11",
      "gasUsed": "0x24df3",
      "effectiveGasPrice": "0x743c2a0",
      "blobGasPrice": "0x1",
      "from": "0xf39fd6e51aad88f6f4ce6ab8827279cfffb92266",
      "to": "0x5fbdb2315678afecb367f032d93f642f64180aa3",
      "contractAddress": null
    },
    {
      "status": "0x1",
      "cumulativeGasUsed": "0xc87f",
      "logs": [
        {
          "address": "0xe7f1725e7734ce288f8367e1bb143e90bb3f0512",
          "topics": [
            "0xddf252ad1be2c89b69c2b068fc378daa952ba7f163c4a11628f55a4df523b3ef",
            "0x0000000000000000000000000000000000000000000000000000000000000000",
            "0x0000000000000000000000004b7f6bfd248f541eb5474f591d54bc29444946db"
          ],
          "data": "0x0000000000000000000000000000000000000000000000056bc75e2d63100000",
          "blockHash": "0xac5ac04493bcc81cb7da0a5677127964ce8653b049610a89cc0f91ed1f188552",
          "blockNumber": "0x12",
          "blockTimestamp": "0x675dfd6f",
          "transactionHash": "0x151c993d2797e9e5b166bfe49d957a5e2961101efa7a63bc9841345c076864e3",
          "transactionIndex": "0x0",
          "logIndex": "0x0",
          "removed": false
        }
      ],
      "logsBloom": "0x00000000000000000000000000000000000000000000000000000000000000000000000000000000000000000000200010000000000000000000000000000000000000000000000000000008000000000000100000000000000000000000000000000000020000000000000000000800000000000000000000000010000000000000000000000000000000000000000000000000000000000000000000000000000000000000000000000000000000000000000000000000000000000000000000000002000000000000000000001000000000000000000000000000000020000000000000000000000000000000000000000000000000800000000001000000",
      "type": "0x2",
      "transactionHash": "0x151c993d2797e9e5b166bfe49d957a5e2961101efa7a63bc9841345c076864e3",
      "transactionIndex": "0x0",
      "blockHash": "0xac5ac04493bcc81cb7da0a5677127964ce8653b049610a89cc0f91ed1f188552",
      "blockNumber": "0x12",
      "gasUsed": "0xc87f",
      "effectiveGasPrice": "0x65da17f",
      "blobGasPrice": "0x1",
      "from": "0xf39fd6e51aad88f6f4ce6ab8827279cfffb92266",
      "to": "0xe7f1725e7734ce288f8367e1bb143e90bb3f0512",
      "contractAddress": null
    },
    {
      "status": "0x1",
      "cumulativeGasUsed": "0x5208",
      "logs": [],
      "logsBloom": "0x00000000000000000000000000000000000000000000000000000000000000000000000000000000000000000000000000000000000000000000000000000000000000000000000000000000000000000000000000000000000000000000000000000000000000000000000000000000000000000000000000000000000000000000000000000000000000000000000000000000000000000000000000000000000000000000000000000000000000000000000000000000000000000000000000000000000000000000000000000000000000000000000000000000000000000000000000000000000000000000000000000000000000000000000000000000",
      "type": "0x2",
      "transactionHash": "0x807862bf53b7995fd40b38c5272e6e8ffb7fb0029230fcc3a82f79eb5d3df610",
      "transactionIndex": "0x0",
      "blockHash": "0x241672799a7c2d0c32c6e5fe32092d41cef44df504a271bcede28dd4757138e3",
      "blockNumber": "0x13",
      "gasUsed": "0x5208",
      "effectiveGasPrice": "0x5929fc1",
      "blobGasPrice": "0x1",
      "from": "0xf39fd6e51aad88f6f4ce6ab8827279cfffb92266",
      "to": "0xa215c23e89b521db023e19f77263adee21e8131f",
      "contractAddress": null
    },
    {
      "status": "0x1",
      "cumulativeGasUsed": "0x24df3",
      "logs": [
        {
          "address": "0x5fbdb2315678afecb367f032d93f642f64180aa3",
          "topics": [
            "0xddf252ad1be2c89b69c2b068fc378daa952ba7f163c4a11628f55a4df523b3ef",
            "0x0000000000000000000000000000000000000000000000000000000000000000",
            "0x000000000000000000000000a215c23e89b521db023e19f77263adee21e8131f",
            "0x0000000000000000000000000000000000000000000000000000000000000006"
          ],
          "data": "0x",
          "blockHash": "0xbe7541ea7864d2fd54174d9603300f60b897a99e40b3e9e2eb028ba5dce0c6e8",
          "blockNumber": "0x14",
          "blockTimestamp": "0x675dfd6f",
          "transactionHash": "0x2d62a036384995c426142ca4f2cf72fd3173b0867e4390043c83af07e4738629",
          "transactionIndex": "0x0",
          "logIndex": "0x0",
          "removed": false
        }
      ],
      "logsBloom": "0x00000000000000000000000000000000000000000000000400000000000000000000000000000000000000000000000000000000000400200000000000000000000000000000000000000008000000000000000000000000000000000000000000000040020000000000000000000800000000000000000000000010000000000000000400000000000002000000000000000000000000000000000200000000000000000000000000000000000000000000000000000000000000080000000000000042000000000000000000000000000000000000000000000000000020000000000000000000000000000000000000000000000000000000000000000000",
      "type": "0x2",
      "transactionHash": "0x2d62a036384995c426142ca4f2cf72fd3173b0867e4390043c83af07e4738629",
      "transactionIndex": "0x0",
      "blockHash": "0xbe7541ea7864d2fd54174d9603300f60b897a99e40b3e9e2eb028ba5dce0c6e8",
      "blockNumber": "0x14",
      "gasUsed": "0x24df3",
      "effectiveGasPrice": "0x4e08bb3",
      "blobGasPrice": "0x1",
      "from": "0xf39fd6e51aad88f6f4ce6ab8827279cfffb92266",
      "to": "0x5fbdb2315678afecb367f032d93f642f64180aa3",
      "contractAddress": null
    },
    {
      "status": "0x1",
      "cumulativeGasUsed": "0xc87f",
      "logs": [
        {
          "address": "0xe7f1725e7734ce288f8367e1bb143e90bb3f0512",
          "topics": [
            "0xddf252ad1be2c89b69c2b068fc378daa952ba7f163c4a11628f55a4df523b3ef",
            "0x0000000000000000000000000000000000000000000000000000000000000000",
            "0x000000000000000000000000a215c23e89b521db023e19f77263adee21e8131f"
          ],
          "data": "0x0000000000000000000000000000000000000000000000056bc75e2d63100000",
          "blockHash": "0x864ce3923427d18002609b6fc72334f775594eb130b840eb35494fda9135b48e",
          "blockNumber": "0x15",
          "blockTimestamp": "0x675dfd6f",
          "transactionHash": "0x21481dfff79fc723ca4e201af9f803290dac9d72836b600e3c5d62dc93cc1af8",
          "transactionIndex": "0x0",
          "logIndex": "0x0",
          "removed": false
        }
      ],
      "logsBloom": "0x00000000000000000000000000000000000000000000000400000000000000000000000000000000000000000000000010000000000000200000000000000000000000000000000000000008000000000000000000000000000000000000000000000000020000000000000000000800000000000000000000000010000000000000000000000000000002000000000000000000000000000000000000000000000000000000000000000000000000000000000000000000000000000000000000000002000000000000000000001000000000000000000000000000000020000000000000000000000000000000000000000000000000800000000000000000",
      "type": "0x2",
      "transactionHash": "0x21481dfff79fc723ca4e201af9f803290dac9d72836b600e3c5d62dc93cc1af8",
      "transactionIndex": "0x0",
      "blockHash": "0x864ce3923427d18002609b6fc72334f775594eb130b840eb35494fda9135b48e",
      "blockNumber": "0x15",
      "gasUsed": "0xc87f",
      "effectiveGasPrice": "0x4460c82",
      "blobGasPrice": "0x1",
      "from": "0xf39fd6e51aad88f6f4ce6ab8827279cfffb92266",
      "to": "0xe7f1725e7734ce288f8367e1bb143e90bb3f0512",
      "contractAddress": null
    },
    {
      "status": "0x1",
      "cumulativeGasUsed": "0x5208",
      "logs": [],
      "logsBloom": "0x00000000000000000000000000000000000000000000000000000000000000000000000000000000000000000000000000000000000000000000000000000000000000000000000000000000000000000000000000000000000000000000000000000000000000000000000000000000000000000000000000000000000000000000000000000000000000000000000000000000000000000000000000000000000000000000000000000000000000000000000000000000000000000000000000000000000000000000000000000000000000000000000000000000000000000000000000000000000000000000000000000000000000000000000000000000",
      "type": "0x2",
      "transactionHash": "0xc6e7b63f37d5f7f2cb15e75a1891853e3f5d69bbba63ad06b234e242d0f429b2",
      "transactionIndex": "0x0",
      "blockHash": "0xa961c5c2ee0fdabdb71724d6aec5e22d437ddd99df4cffaea35363a844592b4f",
      "blockNumber": "0x16",
      "gasUsed": "0x5208",
      "effectiveGasPrice": "0x3bdc2be",
      "blobGasPrice": "0x1",
      "from": "0xf39fd6e51aad88f6f4ce6ab8827279cfffb92266",
      "to": "0x0077014b4c74d9b1688847386b24ed23fdf14be8",
      "contractAddress": null
    },
    {
      "status": "0x1",
      "cumulativeGasUsed": "0x24de7",
      "logs": [
        {
          "address": "0x5fbdb2315678afecb367f032d93f642f64180aa3",
          "topics": [
            "0xddf252ad1be2c89b69c2b068fc378daa952ba7f163c4a11628f55a4df523b3ef",
            "0x0000000000000000000000000000000000000000000000000000000000000000",
            "0x0000000000000000000000000077014b4c74d9b1688847386b24ed23fdf14be8",
            "0x0000000000000000000000000000000000000000000000000000000000000007"
          ],
          "data": "0x",
          "blockHash": "0x8eb5f8b2ca057c5741892cdbec678cf8f7d4f8642ee27d02f9edb7748d320e5e",
          "blockNumber": "0x17",
          "blockTimestamp": "0x675dfd6f",
          "transactionHash": "0x27789a37312fac910516932c8ef80786d714f00a83ea817d080b29d132acea68",
          "transactionIndex": "0x0",
          "logIndex": "0x0",
          "removed": false
        }
      ],
      "logsBloom": "0x00000000000000000000000000000000000000000000000000000000000000000000000000000000000000000000000000001000000000000000000000000000000020000000000000000008000000000000000000000000000000000000000008000040020000000000000000000800000000000000000000000010000000000000000000000000000000000000000000000000000000000000000200000000000000000000000000000000000000000000000000000000000000008000000000000042000000000000000000000000000000000000000000000100000020000000000000000000000000000000000000000000000000000020000000000000",
      "type": "0x2",
      "transactionHash": "0x27789a37312fac910516932c8ef80786d714f00a83ea817d080b29d132acea68",
      "transactionIndex": "0x0",
      "blockHash": "0x8eb5f8b2ca057c5741892cdbec678cf8f7d4f8642ee27d02f9edb7748d320e5e",
      "blockNumber": "0x17",
      "gasUsed": "0x24de7",
      "effectiveGasPrice": "0x346354f",
      "blobGasPrice": "0x1",
      "from": "0xf39fd6e51aad88f6f4ce6ab8827279cfffb92266",
      "to": "0x5fbdb2315678afecb367f032d93f642f64180aa3",
      "contractAddress": null
    },
    {
      "status": "0x1",
      "cumulativeGasUsed": "0xc873",
      "logs": [
        {
          "address": "0xe7f1725e7734ce288f8367e1bb143e90bb3f0512",
          "topics": [
            "0xddf252ad1be2c89b69c2b068fc378daa952ba7f163c4a11628f55a4df523b3ef",
            "0x0000000000000000000000000000000000000000000000000000000000000000",
            "0x0000000000000000000000000077014b4c74d9b1688847386b24ed23fdf14be8"
          ],
          "data": "0x0000000000000000000000000000000000000000000000056bc75e2d63100000",
          "blockHash": "0xc8aba9f2bb79c816bc0057ccab4e7ced7326236203559845aa10c0e869f6e744",
          "blockNumber": "0x18",
          "blockTimestamp": "0x675dfd6f",
          "transactionHash": "0x584adfad4c869f3d093e127ccb37ffdc081036e9b235dceae4b3debfdd6c039f",
          "transactionIndex": "0x0",
          "logIndex": "0x0",
          "removed": false
        }
      ],
      "logsBloom": "0x00000000000000000000000000000000000000000000000000000000000000000000000000000000000000000000000010000000000000000000000000000000000000000000000000000008000000000000000000000000000000000000000008000000020000000000000000000800000000000000000000000010000000000000000000000000000000000000000000000000000000000000000000000000000000000000000000000000000000000000000000000000000000008000000000000002000000000000000000001000000000000000000000000000000020000000000000000000000000000000000000000000000000800020000000000000",
      "type": "0x2",
      "transactionHash": "0x584adfad4c869f3d093e127ccb37ffdc081036e9b235dceae4b3debfdd6c039f",
      "transactionIndex": "0x0",
      "blockHash": "0xc8aba9f2bb79c816bc0057ccab4e7ced7326236203559845aa10c0e869f6e744",
      "blockNumber": "0x18",
      "gasUsed": "0xc873",
      "effectiveGasPrice": "0x2de7cb0",
      "blobGasPrice": "0x1",
      "from": "0xf39fd6e51aad88f6f4ce6ab8827279cfffb92266",
      "to": "0xe7f1725e7734ce288f8367e1bb143e90bb3f0512",
      "contractAddress": null
    }
  ],
  "libraries": [],
  "pending": [],
  "returns": {},
  "timestamp": 1734212975,
  "chain": 31337,
  "commit": "2941d431"
}